{
  "contractName": "MarionElection",
  "abi": [
    {
      "inputs": [],
      "payable": false,
      "stateMutability": "nonpayable",
      "type": "constructor"
    },
    {
      "anonymous": false,
      "inputs": [
        {
          "indexed": false,
          "internalType": "string",
          "name": "voted_for",
          "type": "string"
        }
      ],
      "name": "Voted",
      "type": "event"
    },
    {
      "constant": true,
      "inputs": [],
      "name": "block_votes_creator",
      "outputs": [
        {
          "internalType": "address",
          "name": "",
          "type": "address"
        }
      ],
      "payable": false,
      "stateMutability": "view",
      "type": "function"
    },
    {
      "constant": true,
      "inputs": [
        {
          "internalType": "string",
          "name": "",
          "type": "string"
        }
      ],
      "name": "marion_election_counts",
      "outputs": [
        {
          "internalType": "uint256",
          "name": "",
          "type": "uint256"
        }
      ],
      "payable": false,
      "stateMutability": "view",
      "type": "function"
    },
    {
      "constant": false,
      "inputs": [
        {
          "internalType": "string",
          "name": "voted_for",
          "type": "string"
        }
      ],
      "name": "add_vote",
      "outputs": [],
      "payable": false,
      "stateMutability": "nonpayable",
      "type": "function"
    },
    {
      "constant": true,
      "inputs": [
        {
          "internalType": "string",
          "name": "candidate_name",
          "type": "string"
        }
      ],
      "name": "get_vote_count",
      "outputs": [
        {
          "internalType": "uint256",
          "name": "",
          "type": "uint256"
        }
      ],
      "payable": false,
      "stateMutability": "view",
      "type": "function"
    }
  ],
  "bytecode": "0x608060405234801561001057600080fd5b50600080546001600160a01b03191633179055610511806100326000396000f3fe608060405234801561001057600080fd5b506004361061004c5760003560e01c80634bdb98ff146100515780634f5eb5bd14610075578063535856121461011d5780639ea6b7e7146101d5575b600080fd5b61005961027b565b604080516001600160a01b039092168252519081900360200190f35b61011b6004803603602081101561008b57600080fd5b8101906020810181356401000000008111156100a657600080fd5b8201836020820111156100b857600080fd5b803590602001918460018302840111640100000000831117156100da57600080fd5b91908080601f01602080910402602001604051908101604052809392919081815260200183838082843760009201919091525092955061028a945050505050565b005b6101c36004803603602081101561013357600080fd5b81019060208101813564010000000081111561014e57600080fd5b82018360208201111561016057600080fd5b8035906020019184600183028401116401000000008311171561018257600080fd5b91908080601f0160208091040260200160405190810160405280939291908181526020018383808284376000920191909152509295506103e6945050505050565b60408051918252519081900360200190f35b6101c3600480360360208110156101eb57600080fd5b81019060208101813564010000000081111561020657600080fd5b82018360208201111561021857600080fd5b8035906020019184600183028401116401000000008311171561023a57600080fd5b91908080601f016020809104026020016040519081016040528093929190818152602001838380828437600092019190915250929550610496945050505050565b6000546001600160a01b031681565b6000546001600160a01b031633146102e9576040805162461bcd60e51b815260206004820152601f60248201527f4f6e6c7920426c6f636b566f74657a2063616e206361737420766f7465732100604482015290519081900360640190fd5b600180826040518082805190602001908083835b6020831061031c5780518252601f1990920191602091820191016102fd565b51815160209384036101000a600019018019909216911617905292019485525060408051948590038201852080549690960190955580845285518482015285517f38cb362e55241cdbab8a2f1105fb99fc7be1f0d6a865f97e688d6d5df0a03614958795945084935083019185019080838360005b838110156103a9578181015183820152602001610391565b50505050905090810190601f1680156103d65780820380516001836020036101000a031916815260200191505b509250505060405180910390a150565b600080546001600160a01b031633146104305760405162461bcd60e51b81526004018080602001828103825260298152602001806104b46029913960400191505060405180910390fd5b6001826040518082805190602001908083835b602083106104625780518252601f199092019160209182019101610443565b51815160209384036101000a6000190180199092169116179052920194855250604051938490030190922054949350505050565b80516020818301810180516001825292820191909301209152548156fe4f6e6c7920426c6f636b566f74657a2063616e20726574726965766520766f746520636f756e747321a265627a7a72315820ea3bc65a8b8ac24ccefa7b861cdb3511f66f0aa653626ae1504453eadedc591864736f6c63430005100032",
  "source": "// SPDX-License-Identifier: Copywritten\npragma solidity >=0.4.22 <0.8.22;\n\ncontract MarionElection {\n    address public block_votes_creator;\n    mapping (string => uint) public marion_election_counts;\n    event Voted(string voted_for); // Event when someone has voted for a candidate\n\n    constructor() public {\n        block_votes_creator = msg.sender;\n    }\n\n    function add_vote(string memory voted_for) public {\n        require(msg.sender == block_votes_creator, \"Only BlockVotez can cast votes!\");\n        marion_election_counts[voted_for] += 1;\n        emit Voted(voted_for);\n    }\n\n    function get_vote_count(string memory candidate_name) public view returns (uint) {\n        require(msg.sender == block_votes_creator, \"Only BlockVotez can retrieve vote counts!\");\n        return marion_election_counts[candidate_name];\n    }\n}\n",
  "sourcePath": "/Users/simeonikudabo/Downloads/block-votez/contracts/MarionElection.sol",
  "compiler": {
    "name": "solc",
    "version": "0.5.16+commit.9c3226ce.Emscripten.clang"
  },
  "schemaVersion": "3.4.16",
  "updatedAt": "2023-11-03T17:07:36.749Z",
  "networkType": "ethereum",
  "devdoc": {
    "methods": {}
  },
  "userdoc": {
    "methods": {}
  }
}